:020000040800F2
:10000000B0640020550200085D0200085F0200088D
:100010006102000863020008650200080000000099
:10002000000000000000000000000000670200085F
:1000300069020008000000006B0200086D02000861
:100040006F0200086F0200086F0200086F020008CC
:100050006F0200086F0200086F0200086F020008BC
:100060006F0200086F0200086F0200086F020008AC
:100070006F0200086F0200086F0200086F0200089C
:100080006F0200086F0200086F0200086F0200088C
:100090006F0200086F0200086F0200086F0200087C
:1000A0006F0200086F0200086F0200086F0200086C
:1000B0006F0200086F0200086F0200086F0200085C
:1000C0006F0200086F0200086F0200086F0200084C
:1000D0006F0200086F0200086F0200086F0200083C
:1000E0006F0200086F0200086F0200086F0200082C
:1000F0006F0200086F0200086F0200086F0200081C
:100100006F0200086F0200086F0200086F0200080B
:100110006F0200086F0200086F0200086F020008FB
:100120006F0200086F0200086F0200086F020008EB
:100130006F0200086F0200086F0200086F020008DB
:100140006F0200086F0200086F0200086F020008CB
:100150006F0200086F0200086F0200086F020008BB
:100160006F0200086F0200086F0200086F020008AB
:100170006F0200086F0200086F0200086F0200089B
:100180006F0200086F02000800F002F800F053F858
:100190000AA090E8000C82448344AAF10107DA45E2
:1001A00001D100F048F8AFF2090EBAE80F0013F0E1
:1001B000010F18BFFB1A43F001031847A0360000D7
:1001C000C0360000103A24BF78C878C1FAD8520768
:1001D00024BF30C830C144BF04680C6070470000C1
:1001E0000023002400250026103A28BF78C1FBD840
:1001F000520728BF30C148BF0B607047732900F019
:100200006783002070471FB502F0B6FF9DE803002A
:1002100000F0FEFA00F038FE04000020002102F099
:100220005DFD401C60600020002102F06DFDE0607B
:100230001FBD10B510BD00F0CDFE1146FFF7E3FF66
:1002400002F09AF901F01CF903B4FFF7F2FF03BCC6
:1002500001F04AF90948804709480047FEE7FEE7F0
:10026000FEE7FEE7FEE7FEE7FEE7FEE7FEE7FEE766
:1002700004480549054A064B70470000C51E0008A2
:1002800089010008B0000020B0640020B0600020A8
:10029000B060002070B5064600F09EFA056806F1D1
:1002A0000B0020F00704B4429CBF002070BD2B4619
:1002B0006A68BAB11068A04210D304F108018842FC
:1002C0003CBF5068586007D35168101941601168ED
:1002D000091B016058601460101D70BD1346526800
:1002E000002AE7D12146284600F07EFA0028DED118
:1002F00070BD70B50446051F00F06EFA0068002C52
:1003000014BF446870BD002C18BFAC423CBF2046EF
:100310006468F8D301680A18AA4218BF456003D17F
:100320002A6805461144016028684119A1421CBF92
:100330006C6070BD6168696021680844286070BDA8
:1003400070B50D460646041F00F046FAD0F800C00E
:10035000C5B1E6B105F10B0020F00703AB423CBF8D
:10036000002070BD2068984238BFDCF8042013D309
:10037000C11A08292FD3E01840F8041B2360FFF7A7
:10038000B8FF28E03046FFF7B4FF002070BD2846D4
:10039000BDE87040FFF77EBF002A18BFA2423CBFF5
:1003A00094465268F8D30119914216D11168084455
:1003B000984212D3C11A08293CBF2060506808D364
:1003C0005168E0184160216812681144C91A01603F
:1003D0002360CCF80400201D70BD181FFFF75AFFE2
:1003E000050007D021680A1F211D00F04FF9201DCC
:1003F000FFF77FFF284670BD10B5044600F0E4F912
:100400000068005DC00602D504F1200010BD204642
:1004100010BD00000FB4044910B503AA029800F003
:100420005BFA10BC5DF814FB1800002070B50C4698
:100430000546012A05D02878800600D5EA69002300
:1004400002E0012305E05B1C934202D2E05C00283D
:10045000F9D1A869E618C01AA861286A1844286268
:100460002846AFF3008004E0D5E9012114F8010B20
:100470009047B442F8D32846AFF3008070BD000027
:100480002DE9F05F894604464FF0000ADFF824B1F9
:10049000FB44C0F820A02046E168884700287DD0B2
:1004A000252806D0D4E901219047206A401C20620B
:1004B000F1E700255F462046E16888472028064688
:1004C00007DB312E05D2B81910F8200C08B105430E
:1004D000F1E7A80701D525F00405C4F81CA0002702
:1004E000C4F818A02A2E09D0304601F09FFE38B378
:1004F00004EB8708303EC8F8186019E059F8041B6F
:10050000204604EB87029161E1688847012F064687
:1005100018D1E069002820DA25F020051DE0D8F880
:10052000180000EB800006EB40003038C8F81800D7
:100530002046E1688847064601F078FE0028EED1A3
:10054000012F0AD02E2E08D12046E16888477F1C53
:100550000646022F45F02005C4DBA069002803DA17
:10056000404245F00105A061E80701D025F01005E3
:10057000A6B1A6F14100192802D8203645F400653D
:100580004A463146204625604D46FFF737FE60B1AA
:10059000012807D0ED1D25F0070000E007E000F17D
:1005A000080978E705F1040975E730467AE7206A1B
:1005B000BDE8F09FF42D000010B5431C02E010F8D8
:1005C000011B71B18107FAD14FF0013202C88C1AB8
:1005D0008C4314EAC211F9D0C01A0A0603D0C01E17
:1005E00010BDC01A10BD0A0401D0801E10BD090242
:1005F000FCD0401E10BD40EA010370B59B072ED110
:100600004FF00136042A2AD308C810C99D1B9D4308
:10061000121F15EAC61517D0D8B2E1B2401A50EA37
:10062000056110D198B2A1B2401A50EA05410AD131
:1006300023F07F4024F07F41401A50EA052102D187
:10064000180EA0EB146070BDA342DBD018BA21BA1B
:10065000884201D9012070BD4FF0FF3070BD0AB94A
:10066000002070BD10F8013B11F8014B63B1A342AB
:100670000AD1521E08D010F8013B11F8014B1BB1F2
:10068000A34201D1521EEDD1181B70BD10B5203A06
:10069000C0F00B80B1E81850203AA0E81850B1E83B
:1006A0001850A0E81850BFF4F5AF5FEA027C24BFF1
:1006B000B1E81850A0E8185044BF18C918C0BDE8E8
:1006C00010405FEA827C24BF51F8043B40F8043BB1
:1006D00008BF7047D20728BF31F8023B48BF11F866
:1006E000012B28BF20F8023B48BF00F8012B7047C0
:1006F0004FF0000200B5134694469646203922BFBB
:10070000A0E80C50A0E80C50B1F12001BFF4F7AF05
:10071000090728BFA0E80C5048BF0CC05DF804EBE7
:10072000890028BF40F8042B08BF704748BF20F855
:10073000022B11F0804F18BF00F8012B704700000A
:100740004FF0013C50F8042B51F8043B9A4221D160
:10075000A2EB0C03934313EACC1317D150F8042BEC
:1007600051F8043B9A4215D1A2EB0C03934313EAD0
:10077000CC130BD150F8042B51F8043B9A4209D109
:10078000A2EB0C03934313EACC13DBD04FF0000031
:10079000704700BFD01A01BAB1FA81F101F0180117
:1007A00022FA01F0CB40C1F12001DBB2C0B2C01A85
:1007B0002CFA01F3D11A914311EAC311E6D1704723
:1007C000704770477047000010B500F05DFB001DDA
:1007D00010BD00BF092500000048704758000020E8
:1007E000704770477047704738B504460A46002086
:1007F0006946AFF30080002808BF38BD0246009963
:10080000204600F049FB012038BD012000F0DABB92
:10081000F8B5AFF30080054600200C46102000BF5D
:100820000646A819A0420DD9324669460020AFF30A
:100830000080070008BF00F0C5FB0098A04218BF69
:100840000546C419FFF7C8FF05600746F01D20F0F4
:1008500007004619284600F00AF8B44208BFF8BD60
:10086000A21B31463868BDE8F84000F015BB0021F6
:100870000160C0E9011070471020704701694A1CEF
:1008800002610878704700B58FB0CDE901310021D1
:10089000059105497944CDE9031011466846FFF7F3
:1008A000EFFD0FB000BD0000E5FFFFFF10B543698D
:1008B00013B1AFF3008001E0FFF7B8FD012010BDD8
:1008C000127800F124010A7000224A700122EDE73B
:1008D00011684FF0FF32E9E7074B70B50D467B44D6
:1008E000FFF7D1FF0446284600F068FB10B14FF037
:1008F000FF3070BD204670BD671B00002DE9FF4F23
:10090000064689B00878FF2806D0491C2D2805D056
:1009100000244FF0000908E000200CE00124F8E773
:1009200009EB8903491C00EB43090878FF28F7D13C
:1009300014B1C9F100008146107800252C46AA4662
:1009400029462D2801D02B2804D1521C2D2813D044
:10095000002082468B461078FF280FD04FF0000C05
:100960000A21521CA5FB017804FB018105FB0C1137
:10097000C5194BEB0104EEE70120EAE70021084628
:100980004FF00000BAF1000F02D000EB80004008E9
:10099000C0F38158B8F1010F01DD4FF0FF380C981A
:1009A00009EB000755EA040009D04FF0020917F5DA
:1009B000FA7F0BDA4FEACA70C6E900B012E04FEADC
:1009C000CA70C6E900B00DB0BDE8F08FB7F5FA7F88
:1009D0000DDDF0487844D0E90010C6E9001040EA87
:1009E000CA70706000F054FAC0F80090EBE7391E4E
:1009F00002DAC8F1000200E0424600DA794206A8B5
:100A000000F06EFA06AB93E8070003AB83E807003B
:100A100044F23E005BEA04010090584604D144F2DF
:100A20001E012C465D460091210C0904014306D1AC
:100A30000099240444EA15442D041039009104F06F
:100A40007F41014306D10099240244EA15642D0236
:100A50000839009104F07041014306D10099240146
:100A600044EA15742D01091F009104F0404101432F
:100A700006D10099A40044EA9574AD00891E009146
:100A800004F00041084304D100986D196441401EF0
:100A9000009042466846002FCDE9014503A902DDDA
:100AA00000F0CFFF01E000F0A4FFBAF1000F044610
:100AB0000D4601D084F0004440F2FF7724F000405E
:100AC000284303D0C4F30A50B84212D100F0E0F931
:100AD000C0F80090C4F30A50B8420AD1AE48784436
:100AE000D0E90010C6E9001004F00041084370602E
:100AF00069E7C6E9005466E72DE9FF4F1F464FF04E
:100B0000000A4FF0FF38454691B0D7E90146CDF8CD
:100B10003CA000F0B9F9C0680168405C1090B96968
:100B200012986D1C8847396A814688470028F6D19B
:100B3000B9F1FF3F0AD0002E24F4D06411DDB9F1E1
:100B40002B0F08D0B9F12D0F0BD102E0404615B0A4
:100B50003AE744F48064B96912986D1C8847761EA0
:100B60008146600504A901D52D2000E02B20002E30
:100B700001F1010B0DF130088DF810003FDDB9F1E6
:100B8000690F08D0B9F1490F05D0B9F16E0F02D045
:100B9000B9F14E0F1CD13B4601A8009580E85002E8
:100BA000DDE912126FF0020002F054FBC11CCED13D
:100BB0000EE0B96912986D1C884781461398761E1D
:100BC00044F4007405600F98401C002E0F9016DD51
:100BD000B9F1300FEDD0B9F1780F02D0B9F1580F5B
:100BE0000DD10F9801280AD13B46CDE90054DDE92B
:100BF0001212001F029602F02BFBC11CA7D1109904
:100C000089453ED144F0800406E01399681CAAF19E
:100C1000010A44F400740860B9696D1C1298761ECC
:100C2000884730288146F0D02BE01099894505D1BE
:100C3000200603D4761E44F0800418E0484601F0F4
:100C4000F5FA08B3761E0DF123018B4544F40074C8
:100C500008D2A9F130000BF8010B200607D5AAF144
:100C6000010003E0200602D40AF101008246A0053B
:100C700002D51399681C0860B96912986D1C8847E1
:100C80008146002ED1DC53E0002E51DDB9F1650F15
:100C900002D0B9F1450F4BD1A00549D5B9696D1CFA
:100CA0001298761E24F440748847002E81460CDD8D
:100CB0002B2804D0B9F12D0F07D144F48074B96901
:100CC00012986D1C8847761E8146E00501D52D21BE
:100CD00000E02B2108F8011BCDF8008021E0761EF2
:100CE0000DF13901884544F400740CD2A9F13000AB
:100CF00010F0FF0088F8000002D10099884509D95A
:100D000008F1010806E0E00501D5244801E042F2BF
:100D10000F708246B96912986D1C884781461398F6
:100D20000560002E04DD484601F080FA0028D6D187
:100D3000F96912988847FF2053468BF8000088F81D
:100D4000000000200A900B9004AA0CA90AA8FFF743
:100D5000D5FDA00502D46FF00100F8E614F0240FD1
:100D60000AD0E00714D13868DDE90A12031D3B60A0
:100D70000068C0E900120BE00AA9684601F0F0F92A
:100D8000E00705D13868009A011D396000680260EB
:100D90002846DCE6A42E00009A2D0000F1D8FFFFC3
:100DA000426842B1016811F8013B23B1521EC0E90B
:100DB0000012184670470121C160881E70474268C2
:100DC0005AB1C368016843B983688B4205D0491E94
:100DD000521CC0E90012002070474FF0FF307047EE
:100DE0000FB4002300B589B00CA900910B99CB601A
:100DF000204B7B440693204B7B44079304236FF0E6
:100E00000042CDE901321D4A7A446B4608920246FF
:100E1000002002F01BFA09B05DF814FB70B506461D
:100E20004FF0FF3015460C46324686B00091CDE9B2
:100E3000010169460020049004A8FFF7D1FF034692
:100E40000498211825B108B10A4600E022462A601C
:100E500000280DD0002B02DD0098884208D03246D1
:100E6000081B69460094CDE9010404A8FFF7B8FF08
:100E700006B070BDABFFFFFFC3FFFFFFC100000066
:100E80000048704750000020004870477000002064
:100E90000048704750000020034640688C460028F8
:100EA00018BF88423CBF03464068F8D3186818440E
:100EB000884207D00CF1030020F00700001D411A02
:100EC000521A0146081D0A60FFF713BA10B504460E
:100ED000FFF77AFC0068005D00F0010010BD000023
:100EE0002DE9F047814616468AB0334878440DC84C
:100EF0008DE80D0030487844801C03AC0DC884E8B0
:100F00000D0041F69B300844372190FBF1F290FB35
:100F1000F1F5A5F1800501FB12041B3C02D56442EA
:100F2000012000E00020DFF890A080460027FA446E
:100F3000AAF1BE0A0DE0E00709D03246684607EB89
:100F400047010AEB810100F068FD8DE8070064109D
:100F50007F1C002CEFD1184F7F44AC3F18E0E8070E
:100F600014D007EB04100DF1180A90E80E008AE87F
:100F70000E00C068F04201D198190890324606A9C7
:100F800003A800F04AFD03AB83E807006D10641C62
:100F9000002DE4D132466946B8F1000F03A802D013
:100FA00000F013FD01E000F038FDC9E90001C9F8C7
:100FB00008200AB0BDE8F08728240000007B00F07C
:100FC0008000704710B500F067FABDE8104000F0EF
:100FD0005DBA70477546FFF753FFAE460500694698
:100FE000534620F00700854618B020B5FFF740F9BA
:100FF000BDE820404FF000064FF000074FF000081A
:101000004FF0000B21F00701AC46ACE8C009ACE89A
:10101000C009ACE8C009ACE8C0098D46704710B5FE
:10102000FFF736FF006810BD10B50446FFF730FF2C
:10103000046010BD2DE9FF4F1F464FF03C0987B0FB
:101040004FF00042DDE9141001F10108DDF858A06D
:1010500002EA40500390002004908346054604466F
:101060000590B969461E08988847AAF1010A0290BE
:10107000BAF1000F37DD02982E2815D0102100F0AC
:101080004CFA00282ADB4FF0010B0499014316D0DB
:10109000B9F1000F0BDB4A46C11700F02BFA0543EC
:1010A0000C43A9F1040905E00120059007E008B10F
:1010B00045F0010501200490059800B9361DB96975
:1010C000089808F101088847BBF1000FAAF1010A4E
:1010D0000290CDD00999C1F80080C9E70298702824
:1010E00008D0502806D0F96908988847BBF1000F4E
:1010F00014D04FE0002002900120BBF1000F0490BB
:1011000009D0B969089808F101088847AAF10109CE
:10111000B9F1000F07DCF969089888476FF0010002
:101120000BB0BDE8F08F2B2804D02D280CD14FF048
:10113000FF300490B969089808F101088847A9F1BF
:101140000109B9F1000FE6DD411CE4D00A2100F0ED
:10115000E4F90028DFDB029908F1010801EB8101C5
:1011600000EB41000290B969089888470A2100F015
:10117000D4F9099AA9F10109B9F1000FC2F8008068
:1011800001DD0028E7DAF969089888470499029890
:1011900000FB016655EA040004D004F04041090058
:1011A00002D006E0039898E0A40044EA9574AD00EC
:1011B000B61E04F00041080002D16D196441761E8C
:1011C000159810F0240F03D04FF00B095C4803E092
:1011D0004FF028096FF07D008246564507DAAAEBEA
:1011E00006018944B9F1410F01DD4FF041090120A9
:1011F0000021A9F1010200F07DF9024628400B46CA
:101200002140084301D0012100E00021501E02913D
:1012100043F1FF3128402140084301D0012000E084
:1012200000200299834651EA0B014FD00021084665
:101230004FF00000039900F4400039B100EB80004A
:101240004FF4400100EBD07001EA600080150128E6
:1012500002DD4FF0FF3000E013D0401C36D0029882
:1012600060B3BBF1000F0CD14A460120002100F011
:1012700041F928402140084301D0012000E000202E
:10128000E0B101204A46002100F034F9034640193C
:101290000A4661412D1A8C4111D3B9F1400F09DD85
:1012A000159810F0240F02D0AAF1340603E0AAF139
:1012B000170600E0761C00254FF0004406E05B1E98
:1012C00042F1FF3220EA030521EA0204CAF10100DB
:1012D000B04206DA1B4903980843019000200090B1
:1012E0000EE0039AC4F3D321E80A0A43164940EA00
:1012F00044500A433146CDE90002684600F08CFFB5
:10130000159810F0240F0BD01598C00715D1386828
:10131000DDE90012031D3B600068C0E900120CE02B
:1013200002A8694600F01CFF1598C00705D138686F
:10133000029A011D3960006802604046F0E6000034
:1013400002FCFFFF0000F07F0000F03F2DE9FF4F9F
:1013500092461D4685B04FF00041DDE9124BDDE9B4
:1013600014727F1E01EA4B50414940F0FF4940EAA8
:101370000108002122F020004928049102D04E28C3
:1013800028D04CE03BA0012607C88DE80700A969DA
:101390000698641C88477F1E014606D41DF8060087
:1013A00018B121F0200181420BD0E96906988847E5
:1013B000032E34D0082E32D06FF0010009B0BDE802
:1013C000F08F761C032E01D0082EE0D1601CCAF8E5
:1013D0000000DCE7A9690698641C88477F1E2AD4B0
:1013E00020F02000412826D1A9690698641C88476E
:1013F0007F1E20D420F020004E281CD1A969069819
:10140000641C88477F1E48F4002849F48009CAF804
:10141000004001D4282806D0E969069888475FEA89
:10142000CB7012D022E0A9690698641C88477F1E01
:1014300001D4002803DAE96906988847BCE729281F
:10144000F1D1641CCAF80040E9E71BF0240F07D073
:1014500028680499031D2B600068C0E9001805E0A6
:101460002868021D2A600068C0F800902046A5E7A1
:101470000000F07F494E46494E4954590000000093
:101480000446AFF300802046FEF7DEFE002801D0C0
:1014900000F02AB87047000010B5012805D00021DF
:1014A00003A000F048F8012010BD09A1F8E70000F2
:1014B00053494752544D454D3A204F7574206F663D
:1014C0002068656170206D656D6F727900000000A5
:1014D0003A2048656170206D656D6F727920636F89
:1014E000727275707465640001491820ABBEFEE726
:1014F00026000200B2F120030AD5C2F1200301FA4E
:1015000002F120FA03F300FA02F041EA0301704706
:1015100000FA03F14FF0000070473A2800D230384B
:1015200020F02002412A01D3A2F13700884201D3E2
:101530004FF0FF30704770B505460C460A2000E0BA
:101540006D1C00F011F835B128780028F8D102E0C0
:10155000641C00F009F814B120780028F8D1BDE827
:1015600070400A20AFF3008008B569468DF800008E
:101570000320ABBE08BD20F07F4C80EA030023F0BF
:101580007F47ACEB070303F57C5300F0004003F109
:10159000FF032DE980494FEA154B09B44FEA144384
:1015A00025EA0B4E24EA03480FF2042606EB132724
:1015B00049083E785FEA320203FB0667C7F5000779
:1015C00007FB06F64FEA54374FEAD64606F1020605
:1015D00007FB066CCCF1005C4FEA1C472CEA074C79
:1015E00007FB06F40CFB06F504EB15464FEA9616CE
:1015F00034BF00204FF000404FEAD13706FB07FC14
:101600004FEA1C4C0CFB0BF7D21B03FB0CF761EBF6
:1016100007010CFB0EF7B0EB074072EB17420CFB17
:1016200008F734BFA2EB0742B2EB074261EB174168
:101630004FEA0C444FEA910706FB07FC4FEA1C4CAB
:101640000CFB0BF7B0EBC74072EB573203FB0CF708
:1016500034BFA2EBC742B2EBC74261EB57310CFB80
:101660000EF7B0EBC70072EB57720CFB08F734BFF4
:10167000A2EBC702B2EBC70261EB5771039F4FEABF
:10168000816141EA921104EBCC044FEAD1374FEA71
:10169000826206FB07FC42EA90124FEA80604FEA42
:1016A0001C4C0CFB0BF7D21B03FB0CF761EB070187
:1016B0000CFB0EF7B0EB074072EB17420CFB08F780
:1016C00034BFA2EB0742B2EB074261EB17414FEA8E
:1016D0008C554FEA910704EB9C2406FB07FC4FEA6C
:1016E0001C4C0CFB0BF7B0EBC74072EB573203FB03
:1016F0000CF734BFA2EBC742B2EBC74261EB5731E4
:101700000CFB0EF7B0EBC70072EB57720CFB08F73F
:1017100034BFA2EBC702B2EBC70261EB577115EB06
:101720004C254FEA816141EA92114FEA82624FEA09
:10173000D13742EA901206FB07FC44F100044FEA5D
:1017400080604FEA1C4C0CFB0BF7D21B03FB0CF721
:1017500061EB07010CFB0EF7B0EB074072EB174291
:101760000CFB08F734BFA2EB0742B2EB074261EB78
:10177000174115EB1C154FEA813141EA92414FEABE
:10178000823242EA90424FEA80304FEA0C7644F1CE
:10179000000448EA03434EEA0B484FF0000EB2EB58
:1017A000080C71EB030724BF624639464EEB0E0E60
:1017B0004FF0000B0018524149414BEB0B0BB2EBC1
:1017C000080C71EB03077BF1000B24BF624639461E
:1017D0004EEB0E0E4FF0000B0018524149414BEBFF
:1017E0000B0BB2EB080C71EB03077BF1000B24BF72
:1017F000624639464EEB0E0E51EA020718BF46F01C
:10180000010616EB0E7655F1000254F1000103D5E6
:10181000BDE88901BDE80088BDE88901BDE8004850
:10182000B619524141EB0101A3F1010370478080D9
:101830007F7E7D7C7B7A797877767675747372712A
:1018400071706F6E6E6D6C6C6B6A6A6968686766E2
:1018500066656464636362616160605F5F5E5E5D74
:101860005D5C5C5B5B5A5A595958585757565655E8
:1018700055555454535352525251515050504F4F4A
:101880004F4E4E4D4D4D4C4C4C4B4B4B4A4A4A499A
:1018900049494848484747474746464645454544DD
:1018A0004444444343434342424242414141000095
:1018B00046EA0646A3F570534FEA164646EA4256F4
:1018C0004FEAD22242EA415210B54FEAD121A3F1A8
:1018D000010300F017F820F0004000F1010C00F0C7
:1018E000004701EB00501146BCF5006F40EA0700CD
:1018F00000D210BD02484FF0000140EA070010BDC1
:101900000000F07F002B26D4770021D01CB54FEAD1
:10191000370703B44FF010004FF010014FF00000F4
:101920000FBCBDE810400BF1010BBBF1010F08BF6C
:101930005FEA170722BF12F1010211F101014FF016
:10194000004143F1000300F0004043EA000070470B
:10195000F9D35708DAE746EA064613F1400F4FEA93
:1019600016461FDD13F1200FDFBF16430A46002184
:1019700020335B42C8D0C3F1200746EA064602FA8C
:1019800007F74FEA164646EA0706C3F1200722FA90
:1019900003F201FA07F721FA03F14FF0000342EADC
:1019A0000702B1E746EA020646EA06464FEA16464D
:1019B00046EA0106BCBF46EA0646360C4FF0000375
:1019C0004FF000024FF000019EE72DE9C04893461A
:1019D00030B491E8380007C831EA400C48BF34EA17
:1019E000430C03D5FFF7C7FDFFF78CFFF0BCBDE844
:1019F00000882DE9C048934630B491E8380007C804
:101A000031EA400C48BF34EA430C03D5FFF7B3FD7D
:101A1000FFF74EFFF0BCBDE800882DE9C0489346B3
:101A200030B491E8380007C810F0804F08BF13F0B9
:101A3000804F03D100F019F8FFF764FFF0BCBDE858
:101A400000882DE9C048934630B491E8380007C8B3
:101A500010F0804F08BF13F0804F03D100F005F85D
:101A6000FFF726FFF0BCBDE8008820F07F4780EA42
:101A7000030023F07F4C07EB0C03A3F57C5300F02D
:101A80000040A3F1FE0392F0000F00F0B38095F048
:101A9000000F00F077802DE901494FEA11404FEA2D
:101AA000144621EA004800FB06FC24EA064708FB2E
:101AB00006F607FB08F800FB07F718EB06484CEBA7
:101AC000164C4FEA124B18EB07484FEA15464CEB01
:101AD000174022EA0B4E0BFB06FC25EA06470EFBDD
:101AE00006F607FB0EFE0BFB07F71EEB064E4CEB54
:101AF000164C4FF000061EEB074E4CEB174B18EB45
:101B00000B0840F1000018EB0E0B58EB000840F1F9
:101B100000008F1A4FF000013CBFC943661B14BF81
:101B2000B5EB040C00213CBFC943F61B4FEA174438
:101B30004EEA8E0E27EA04454FEA1C4704FB076273
:101B40002CEA074C05FB07F70CFB05F604FB0CFC25
:101B500016EB074642EB174216EB0C4642EB1C42D3
:101B60001BEB060658EB0202414146EA9E0601D5F0
:101B7000BDE80189B619524141EB0101A3F101030E
:101B8000BDE801894FEA14454FEA114724EA0546AA
:101B900021EA074C05FB07F406FB07F70CFB06F1EF
:101BA00005FB0CFC11EB074144EB17444FEA1247CD
:101BB00011EB0C4144EB1C4422EA074C05FB07F2F5
:101BC00006FB07F70CFB06F605FB0CFC16EB0746BD
:101BD00042EB174216EB0C4642EB1C456A1854F1D7
:101BE000000148BF7047B619524141EB0101A3F112
:101BF0000103704795F0000F37D04FEA11424FEACA
:101C0000144721EA024624EA074C02FB07F106FBCF
:101C100007F70CFB06F402FB0CFC14EB074441EB4A
:101C200017414FEA154714EB0C4441EB1C4125EAE0
:101C3000074C02FB07F506FB07F70CFB06F602FB59
:101C40000CFC16EB074645EB174516EB0C4645EB2F
:101C50001C42121951F1000148BF7047B619524198
:101C600041EB0101A3F1010370474FEA14454FEA2C
:101C7000114724EA054621EA074C05FB07F106FB5C
:101C800007F70CFB06F24FF0000605FB0CFC12EB0D
:101C9000074241EB174112EB0C4251EB1C4148BF8C
:101CA0007047921841EB0101A3F101037047F0B5B1
:101CB000002201274FF0030C0B6807FA02F52B40B6
:101CC000AB422CD1066853000CFA03F4A64306601D
:101CD0000E79D0F800E09E4046EA0E0606600E79C6
:101CE000012E01D0022E12D18668A64386604E795D
:101CF000D0F808E09E4046EA0E0686604668AE438D
:101D0000466045688E799640B6B235434560C568F1
:101D1000A543C560CC799C40C3681C43C460521C79
:101D2000102AC9D3F0BD4B07DB0E9A40C90810B585
:101D300000EB8100016A0F249C40A1430162016A0B
:101D40001143016210BD4183704701837047000059
:101D5000044A0029116801D0014300E08143116069
:101D60007047000030380240044A0029116801D051
:101D7000014300E081431160704700004438024095
:101D800070B5204B1968204C11F00C0104D066107E
:101D9000042903D0082903D004601BE0066019E081
:101DA000184A121F1168C1F38055116801F03F01F4
:101DB00015B1B6FBF1F101E0B4FBF1F11468126862
:101DC000C4F388146143C2F30142521C5200B1FBB8
:101DD000F2F1016019680F2202EA11110B4A545CFA
:101DE0000168E14041601C68072505EA9424145D00
:101DF00021FA04F484601B6805EA5333D25CD140B5
:101E0000C16070BD083802400024F400300000209A
:101E10000CB50022274900920192086840F48030F6
:101E200008604FF4A043086800F400300190009867
:101E3000401C0090019810B900989842F3D10868AE
:101E4000800334D5012001901A484030026842F0E6
:101E5000805202601848026842F44042026015480D
:101E6000083002680260026842F4004202600268C0
:101E700042F4A0520260031F104A1A600A6842F03E
:101E800080720A600A689201FCD50D4940F2057221
:101E90000A60016821F003010160016841F002015C
:101EA00001600168C1F381010229FAD10CBD0192E0
:101EB0000CBD00000038024000700040085440078C
:101EC000003C0240124810B5016841F47001016005
:101ED0001048016841F0010101600E4A00210832FA
:101EE000116002680C4B1A400260031D0B4A1A6015
:101EF000026822F48022026006480C300160FFF77D
:101F000087FF03494FF000608039086010BD000072
:101F100088ED00E000380240FFFFF6FE103000249C
:101F20000029818902D041F4005101E021F40051DF
:101F3000818170470246002012880A4200D00120A9
:101F4000704710B5C1F3421301F01F040121A140F5
:101F5000012B07D0022B07D01430002A026805D0CD
:101F60000A4304E00C30F8E71030F6E78A430260D9
:101F700010BD00007FB50446008A0D46C98820F4D4
:101F8000405001432182A08941F20C618843A98815
:101F90002A8911436A8902431143A181A08A20F44E
:101FA0004071A8890843A0826846FFF7E9FE1A48F5
:101FB000844202D01948844201D1039800E002987B
:101FC000A189090400EBC00101EB0010296801D5CB
:101FD000490000E08900B0FBF1F06422B0FBF2F1AF
:101FE00009010B096FF018056B4300EB8300A3890F
:101FF0001D044FF0320306D503EBC000B0FBF2F036
:1020000000F0070005E003EB0010B0FBF2F000F079
:102010000F00084320817FBD0010014000140140E3
:10202000C1F308018180704730B540F2FF742DED97
:10203000048BF0EE608A18EE901A85B0B0EE408AFC
:102040009FED2B9B05468DED008B34EA115147D057
:1020500053EC192B51EC180B00F0B2FE40D02A467D
:1020600051EC180B01F0C4F841EC180B18EE900A73
:102070008DED008B34EA10501CD053EC192B51EC31
:10208000180B00F09DFE2BD10220FEF7CDFF00F0D3
:1020900057F810EE901A18EE900A8DED020B8DEDA8
:1020A000008B61F31E0003909DED020B05B0BDECAB
:1020B000048B30BD0220FEF7B7FF00F031F810EEC0
:1020C000901A18EE900A8DED020B8DED008B61F3E6
:1020D0001E0003909DED020B05B0BDEC048B30BDDE
:1020E00005B0B0EE480AF0EE680ABDEC048B30BDD6
:1020F000000000000000000000B583B09FED060B5B
:102100000A4601468DED000B6846FEF787FE9DED01
:10211000000B03B000BD0000000000000000000044
:102120009FED050B10B553EC102B51EC100B00F08C
:10213000EFFE41EC100B10BD00000000000000702D
:102140009FED050B10B553EC102B51EC100B00F06C
:10215000DFFE41EC100B10BD00000000000000107D
:1021600030B504462DED048B81B06A4691ED008BAD
:1021700051EC180B00F07CF900989FED239B7E300A
:102180000090002821DC53EC192B51EC180B00F0C7
:1021900017FE1AD0002140F608004FF00000054657
:1021A00051EC180B00F0C6FD08EE100A40F60800CE
:1021B00005EA00014FF00000B5EEC08AF1EE10FA1A
:1021C00004BF0220FEF730FF17E00098FF280EDB67
:1021D0000220FEF729FF53EC192B51EC180B00F0ED
:1021E00095FF8CBF9FED0A8A9FED0A8A05E051ECAE
:1021F000180B00F09FFD08EE100A84ED008A01B074
:10220000BDEC048B30BD00000000000000000000A9
:10221000000080FF0000807F10B5044690ED000BA9
:102220000846FFF701FF84ED000B10BD30380A2887
:1022300001D2012070470020704710B530B103680B
:1022400023B1D0E90121914201D204E0002010BD68
:10225000491C816020B1914202D25C5C202CF7D9EC
:102260009142F4D1491E816010BD000070B5044652
:102270000F4E19E0A0892568C0050AD4A06820B1D6
:10228000FFF7F4FFA089C00503D4206908B1716885
:102290008847A089800503D4206A08B171688847FF
:1022A0007168204688472C46002CE3D170BD0000A1
:1022B000240000200248D0E90010084470470000C4
:1022C0001C000020002200F019B910B50168282078
:1022D0008847040002D02821FEF70AFA204610BDE4
:1022E0000022114600F06EB82DE9F04788B00F4685
:1022F00006469A4615461C216846FEF7F9F92F480E
:102300000024002E0460446055D08146E7B3009657
:10231000CDE90174D9E90212D9F810000491CDE990
:10232000052009F10800FFF7D0FF5FEA00082BD075
:1023300000986F4608B1029808B100200CE001989F
:10234000042808D903221EA10098FEF754F910B9F9
:102350000298C01C02903846FFF76FFF01464046C6
:1023600000F08AFB68B1BAF1000F13D06846FFF79E
:1023700064FFDDE90101814203D202990098405CCB
:1023800040B14046FFF772FFDDE9011088420AD2F2
:1023900004460BE01DB102990098084428604046AD
:1023A00008B0BDE8F087080000D0441E0DB1301918
:1023B0002860C9E900640020F2E700001C0000204A
:1023C000EFBBBF0070B515460E46040009D0FEF7FE
:1023D000F3F8411C2B4632462046BDE87040FFF71B
:1023E00083BF002070BD000010B5FFF779FF040027
:1023F0000BD00AA1FFF766FF09A12046FFF762FF95
:102400002046FFF733FF012010BDFFF753FF0146C1
:1024100005A0FDF7FFFF4FF0FF3010BD636D6400B6
:1024200066705F74656D70006A736F6E20666D74A0
:10243000206572726F723A25730A2E004FF0007099
:10244000401EFDD27047000070B5074D044681B2B2
:102450002846FFF7E5FD80212846FFF76BFD0028A1
:10246000F9D0204670BD00000010014000000000BF
:1024700010B582B01446CDE900010023009A236014
:10248000194B21F0004098422ADA024328D0B0F5D7
:10249000801FA8BF226810DA9FED150B53EC102B9C
:1024A0009DED000B51EC100B00F032FDCDE9000169
:1024B0006FF0350221F0004022600F4B6FF31E5188
:1024C00003EB20501044206041F0FF5040F00050DA
:1024D00001909DED000B00BF02B051EC100B10BD40
:1024E0009DED000BF8E700000000F07F0000000009
:1024F000000000000000504302FCFFFF2DE9F04106
:102500008846A8B3B8F1000F33D085680AB90AE04D
:102510002D686DB3296A59B34046FEF711F90028BA
:10252000F6D120E02D681DB32E6A5FEA0804F9D0C9
:10253000002EF7D0B44218D002E098B1641C761C8B
:102540002078FDF759FF07463078FDF755FF8742A1
:102550002078F2D0FDF750FF04463078FDF74CFFAD
:102560008442DFD125B1286A10B12846BDE8F08148
:10257000FFE70020FAE7000001210846FFF7E8FB2B
:102580001E4840210026016001210171867103214E
:1025900041711B4DC67101462846FFF788FB4FF479
:1025A000E13000F0E7FA17A119A0FDF733FF1EA0F4
:1025B000FDF730FF114C103CE6602068FFF714FF78
:1025C000A060E168491CE1606429F6DB18A0FDF712
:1025D00021FF194C80212046FFF7ACFC0028F9D0E0
:1025E00040212846FFF7B1FBFFF728FF402128468E
:1025F000FFF7A9FBFFF722FFF2E700001000002021
:102600000000024032323A35333A303100000000E7
:102610002D2D2D20434A534F4E2054657374202591
:10262000732D2D2D0D0A000073746172740D0A0054
:10263000656E640D0A000000001001402DE9F041B4
:1026400007460026C8680C463546B0F57A7F5BD24F
:10265000401CE0602168A068095C5B2954D1401CE3
:10266000A0602046FFF7E9FD4CB1D4E90110884293
:1026700003D22268125C5D2A33D0884203D3A0685B
:10268000401EA06040E0401E04F11008A0604046DB
:10269000FFF71BFE98B30EB3286045600546A0689F
:1026A000401CA0602046FFF7C8FD2146284600F0E8
:1026B000E3F930B32046FFF7C0FD14B3D4E90110AD
:1026C000884203D22168095C2C29E0D062689042DC
:1026D00017D22168085C5D2813D102E00646354612
:1026E000DDE7E068401EE06006B175602020C7E9C4
:1026F0000260A068401CA0600120BDE8F081FFE7F7
:1027000016B13046FFF7B2FD0020F6E7034610B5DC
:1027100000200246995CA1F13004092C01D8303820
:102720000AE0A1F14104052C01D8373804E0A1F1F9
:102730006104052C08D857380844032A00D2000148
:10274000521C042AE6D310BD002010BDF0B54FF096
:1027500000032DED028B91B005460C004FF02E07C3
:10276000184610933DD02168D9B36E4627E0226801
:102770001144425C342A1BD00ADCA2F12B01092946
:1027800023D2DFE801F015221517221515151500C3
:10279000382A0DD006DC352A0AD0362A08D0372A46
:1027A00013D105E0392A03D0452A01D0652A0CD17E
:1027B000325400E03754401C3F2806D22CB1A168A7
:1027C000D4F804C00A186245D1D3335410A9304656
:1027D000FFF792FC1098B0EE408AF0EE608A8642D5
:1027E00004D1002011B0BDEC028BF0BD9FED130BA6
:1027F00085ED068B53EC102B51EC180B00F086FC8A
:1028000002D86FF000400FE09FED0E0B51EC180B5B
:1028100053EC102B00F040FB02D84FF0004003E0D7
:1028200051EC180B00F008FB68610820E860109973
:10283000A068891B0844A0600120D3E70000C0FF06
:10284000FFFFDF41000000000000E0C12DE9F04182
:1028500007460026C8680C463546B0F57A7F78D220
:10286000401CE060002C74D0D4E90110884270D282
:102870002168095C7B296CD1401CA0602046FFF7D1
:10288000DCFCD4E90110884203D22268125C7D2A64
:102890004CD08842A0F10100A0605AD204F1100887
:1028A0004046FFF712FDE8B3F6B1286045600546E3
:1028B000A068401CA0602046FFF7BFFC21462846C8
:1028C00000F049F878B32046FFF7B7FC2869286282
:1028D000002028613CB3D4E90110884236D2216837
:1028E000095C3A2932D102E006463546E0E7401C51
:1028F000A0602046FFF7A1FC2146284600F0BCF866
:1029000088B12046FFF799FCD4E90110884203D230
:102910002168095C2C29C3D06268904216D22168D4
:10292000085C01E011E011E07D280FD1E068401E55
:10293000E06006B175604020C7E90260A068401CF5
:10294000A0600120BDE8F08103E016B13046FFF73A
:102950008DFC0020F6E72DE9F84F8146D1F800C044
:1029600088684FF0000A0CEB0008CDF800A01CF8B6
:10297000000008F101050E462C465746222875D165
:102980000021706807E05C2B04D1521C824269D29E
:10299000491C641C641CA4EB0C02824202D2237802
:1029A000222BF0D1A4EB0C0282425BD220782228A9
:1029B00058D1A4EB0800401A3169401C8847070031
:1029C00054D000973DE029785C2905D000986D1C13
:1029D00000F8011B009034E00221601B012841DB5C
:1029E0006878662814D008DC22281DD02F281BD038
:1029F0005C2819D0622835D108E06E280ED07228E4
:102A00000ED074280ED075282CD112E0082200E0D8
:102A10000C22009800F8012B009011E00A22F8E740
:102A20000D22F6E70922F4E7009A02F8010B009262
:102A300006E06A462146284600F0E8F8010011D079
:102A40000D44A542BFD3009981F800A01021C9E927
:102A500003173068201A401CB0600120BDE8F88FD1
:102A600004E0FFE717B171693846884715B130684F
:102A7000281AB0600020F1E770B50C0005465ED062
:102A8000216800295BD0A0686368021D9A4205D8BE
:102A90000844042231A1FDF7AEFD78B3A068626856
:102AA000411D0126914206D82168052208442DA126
:102AB000FDF7A1FD28B3A0686268011D914206D808
:102AC00021680422084429A1FDF795FDE8B1D4E965
:102AD0000101814203D22268525C222A1DD0814228
:102AE00021D22268525C2D2A02D0303A092A1AD803
:102AF00021462846BDE87040FFF728BE0420E86064
:102B000006E0EE60A068401D04E002206E61E8600F
:102B1000A068001DA060012070BD21462846BDE8C8
:102B20007040FFF718BF814203D22268525C5B2AD3
:102B300007D0814203D22068405C7B2807D0002068
:102B400070BD21462846BDE87040FFF777BD21469D
:102B50002846BDE87040FFF779BE00006E756C6CCA
:102B60000000000066616C7365000000747275659A
:102B70000000000070B5054601210846FFF7E8F89F
:102B800001211020FFF7F0F81C494FF4C060002429
:102B90000860022008718C7103204871184ECC71B6
:102BA0003046FFF784F8072209213046FFF7BBF8CB
:102BB00007220A213046FFF7B6F812490C200D60B3
:102BC0008C80CC800C818C810F4D48812846FFF78A
:102BD000D1F9012240F225512846FFF7B2F9074901
:102BE00025200C3908704C708C700120C87001468B
:102BF0002846BDE87040FFF793B9000010000020A0
:102C00000000024040000020001001402DE9F04784
:102C100007460026C81B1446894606285CDBB81CFC
:102C2000FFF774FD0546A0F55C404FF480618842D3
:102C300052D3A5F558408A4650451AD2B81DA9EB83
:102C400000014FF00C08062946DB01785C2943D1CE
:102C50004178752940D1801CFFF758FDA0F55C41F3
:102C6000514539D2C5F3090161F39F2000F5803049
:102C700002E04FF006082846802801D2012210E029
:102C8000B0F5006F02D20222C0260AE0B0F5803F04
:102C900002D20322E02604E0B0F5881F1CD20422F1
:102CA000F026511E07E000F0BF03256843F08003C3
:102CB00080096B54491E11F0FF01F4D1012A01D99A
:102CC000304301E000F07F00216808702068104464
:102CD00020604046BDE8F0870020FBE710B50029E2
:102CE0000AD00878002807D005487844FDF728FD69
:102CF000002801D0002010BD0248784410BD00001B
:102D00009A0B0000920B000010B500290AD0087839
:102D1000002807D005487844FDF712FD002801D0AF
:102D2000002010BD0248784410BD00007E0C000059
:102D3000760C000021F00042A2F16052B2F5801F33
:102D400001F0004328BFD2F17F6C0BD95FEA001C71
:102D500043EAC20242EB507018BF704728BF20F010
:102D600001007047B2F5801FBCBF184670474FEA9C
:102D7000410C1CF5001F02D2084600F002BA70B5E3
:102D800000F070F900000089FFF7F6BF4FF0004037
:102D9000A0F580007047000002494FF0000000F0ED
:102DA000F5B900BF0000F87F491058BFC1F140419C
:102DB0005B1058BFC3F140438B42EFF30080704774
:102DC00051EA030C17D41CF5801F58BFBCF5801FB7
:102DD00000F10680994218BF704708BF90427047C3
:102DE00007D711F5801F58BF13F5801F19D49942DA
:102DF0007047894270471CF5801F08D5BCF5801FBD
:102E0000F7D58B4218BF704708BF824270474FF416
:102E1000001C1CEB410F38BF1CEB430F01D28B424F
:102E2000704770B500F01EF9922449004FF0005130
:102E30004FF08053FFF7B8BF4FEA41034FEA5353B7
:102E4000A3F58063D3F11E03C8BFD3F1210C0CDDC1
:102E50004FF0004242EAC12242EA505232FA03FCE9
:102E60008CEAE17CACEBE1707047102BC4BF002012
:102E7000704703F5787CBCF1FF3F04D06FF000424F
:102E800082EA2100704770B500F0ECF84992248086
:102E900000207047F2E7000051EA030C17D41CF53C
:102EA000801F58BFBCF5801F00F10680994218BFF3
:102EB000704708BF9042704707D711F5801F58BF71
:102EC00013F5801F19D499427047894270471CF549
:102ED000801F08D5BCF5801FF7D58B4218BF7047FF
:102EE00008BF824270474FF4001C1CEB410F38BFF3
:102EF0001CEB430F01D28B42704770B500F0B2F863
:102F0000922449004FF000514FF08053FFF74CBF1F
:102F1000DFF848C170B51CEA111E1EBF1CEA13156C
:102F20009EEA0C0F95EA0C0F00F06F8081EA030413
:102F300023EA4C134EEAD47E21EA4C1141F480116D
:102F400043F48013AE44A1FB024CA0FB0365AEF139
:102F50007F7E361955EB0C05A1FB034C4CF10003A9
:102F6000A0FB021C16EB0C06654153F1000309425D
:102F700018BF46F0010613F4007F0BD14FEA03316E
:102F80004FEA0530340341EA155140EA16506FF01C
:102F900003020AE04FEAC3214FEAC520F40241EAE6
:102FA000555140EA56506FF0020202EB2E4201EBFF
:102FB000025585EACE710AD05FEA440C18BF24F0AE
:102FC000004450F1000041F1000120EAD47040F2C9
:102FD000FE7C624500D270BDA84214BF4FF0804411
:102FE0004FF04044002E08BF0024BEF1806FA8BF00
:102FF000A1F1C041BDE8704080F282804FF0000036
:1030000001F1C04101F0004170479EEA0C0F0CEA4B
:10301000131518BF95EA0C0F06D04FF0000081EA97
:10302000030E0EF0004170BD00F01CF88900013E57
:1030300000F007B800F009B84FEA430C5FEA5C5CA7
:1030400008D081EA030100F05BB84FEA410C5FEA67
:103050005C5CF6D14FF00000014970470000FF07AB
:103060000000F87F0EF1020E2EF0030E5EF8046BE6
:10307000364205D4012A43EB030515F5001F12D88B
:10308000012841EB010C1CF5001F0CD80ED14FEAB2
:10309000D17C15F5001F0CEB4C0C0CF1020C08BF99
:1030A0004CEBD37C04E04FF0080C01E04FEAD37CFA
:1030B0000CEB4C0526FA05F606F00706B6F1040CF3
:1030C00006D20EEB860CBDE870404CF0010C604758
:1030D000DFE80CF0090B02024FF000414FF0000056
:1030E000A1F5002170BD19461046012851EB0104DD
:1030F00018BFD4F5001484BF002001F0004170BD5A
:103100000808A0F500114FEA3101704753EA010C9D
:1031100017D41CF5801F58BFBCF5801F00F1068036
:103120008B4218BF704708BF8242704707D713F51C
:10313000801F58BF11F5801F19D48B4270479B42E6
:1031400070471CF5801F08D5BCF5801FF7D5994244
:1031500018BF704708BF904270474FF4001C1CEB2B
:10316000430F38BF1CEB410F01D2994270470FB497
:103170000CBC03BCFFF7C1BE4FF04070E1EE100A7B
:103180007047FF2141EAD050C00570470CF00F0393
:10319000092B08BF082000F05F800A2B0BD0082BFA
:1031A00018BF704708BF1CF0400F0AD04FF0000056
:1031B0004FF0000170471CF0400F18BF4FF0004067
:1031C00070471CF0100F08D020F0704300F07F42D1
:1031D00042EAD3014FEA4370704700F0604021F0AB
:1031E0007F4242EA000201F07F4040EA727070477D
:1031F0004FF0FF0C4CF4E06C1CEA11531CBF9CEA2E
:10320000030C9445C2BFDA4201EB02517047002B18
:103210000DD0BCF1000F0FD0002A01F00041A4BF77
:1032200041F0E04141F07F614FF00000704701F054
:1032300000414FF00000704750EA01334FF09B0C03
:1032400018BF4CF0806C7FF4A7AD7047FDF754BCFD
:10325000FDF7F0BEFEF77AB81CF4801F11D01CF405
:10326000E02F03D06FEACC31490070474FF0405057
:10327000EFF3008222F0704242EA000282F30088FB
:1032800070474FF000007047040000080000000085
:1032900000000002000100001000000002400000D9
:1032A000000000A00000000005400000000000C871
:1032B000000000000C4000000000409C00000000E6
:1032C000194000000020BCBE000000003440000097
:1032D000BFC91B8E00000004B5400000504BCFD08A
:1032E0006607E2CF010000006C4100003E8251AA57
:1032F000DFEEA73401000000D9420000DCB5A0E2F7
:103300003A301F97FFFFFFFFB4450000FD25A0C81E
:10331000E9A3C14FFFFFFFFFFF3F00000000008057
:1033200000000000FF3F00000000008000000000DF
:103330007B22636D64223A312C2266705F74656D66
:1033400070223A5B342C32302C39342C312C343509
:103350002C3230322C3138312C3233322C36372C5F
:103360003137312C312C3234382C34312C31383641
:103370002C3138322C3232392C3132392C32303037
:103380002C3235352C3234382C33382C3136322C23
:103390003138342C312C332C3138372C3139312C15
:1033A0003234382C3134362C3137382C3138322CF9
:1033B0003233332C36372C3138352C3133332C32F1
:1033C00034382C3138362C3136322C3138322C31DD
:1033D00031332C3139352C35372C3234362C3233CD
:1033E0002C3139382C31382C3138342C342C3133C1
:1033F000302C3138362C36392C3234382C323134AA
:103400002C3137302C3138312C3233302C313331B0
:103410002C3230302C352C3232342C31302C3237A7
:103420002C3138332C302C36382C3138362C37317F
:103430002C3232342C33382C3131352C3138302C7D
:103440003232332C3133302C3234392C36372C3263
:1034500034382C3137302C35312C3138312C323353
:10346000312C36372C3234382C352C3232342C3146
:1034700036362C3233352C3138312C3130392C3131
:1034800039352C37322C3132302C32332C32352C2A
:103490003137322C3138322C382C372C3133362C12
:1034A00036392C3233312C37302C3137322C3138FD
:1034B000332C3132392C3133332C35352C35322CF9
:1034C000302C3131332C3138302C3138342C3234EB
:1034D0002C36372C3136392C3139312C3233382CCB
:1034E0003132322C3230342C3138302C3232362CCE
:1034F000342C3234382C3139372C3233312C3132B0
:10350000312C38342C3138332C31352C3133332CA9
:103510003133352C3139372C3233392C3139372C82
:103520003130382C3138312C3233342C352C323484
:10353000372C3230312C3233312C3230352C313281
:103540002C3138322C392C3133342C3131382C3168
:1035500039332C3231352C37372C3131352C313849
:10356000322C3131322C3133322C37332C31323052
:103570002C32332C3132362C35312C3138322C323E
:1035800033332C36372C3138352C37312C3233321B
:103590002C302C302C302C302C302C302C302C304B
:1035A0002C302C302C302C302C302C302C302C303B
:1035B0002C302C302C302C302C302C302C302C302B
:1035C0002C302C302C302C302C302C302C302C301B
:1035D0002C302C302C302C302C302C302C302C300B
:1035E0002C302C302C302C302C302C302C302C30FB
:1035F0002C302C302C302C302C302C302C302C30EB
:103600002C302C302C302C302C302C302C302C30DA
:103610002C302C302C302C302C302C302C302C30CA
:103620002C302C302C302C302C302C302C302C30BA
:103630002C302C302C302C302C302C302C302C30AA
:103640002C302C302C302C302C302C302C302C309A
:103650002C302C302C302C302C302C302C302C308A
:103660002C302C302C302C302C302C302C302C307A
:103670002C302C302C302C302C302C302C302C306A
:103680002C302C302C302C302C302C302C302C305A
:103690002C302C302C302C302C302C302C302C304A
:1036A0002C302C302C302C302C302C302C302C303A
:1036B0002C302C302C302C302C302C302C302C302A
:1036C0002C302C302C302C302C302C302C302C301A
:1036D0002C302C302C302C302C302C302C302C300A
:1036E0002C302C302C302C302C302C302C302C30FA
:1036F0002C302C302C302C302C302C302C302C30EA
:103700002C302C302C302C302C302C302C302C30D9
:103710002C34392C36382C38312C36372C32302C8E
:1037200038332C35302C36382C342C36362C313678
:10373000312C34322C3130302C3132392C34302C85
:1037400039382C36372C392C38342C32312C33374D
:103750002C3133312C35322C33382C32312C32335E
:103760002C36392C38362C35302C35322C34322C42
:103770003134352C36392C3132312C37342C383524
:103780002C322C302C302C302C302C302C302C3057
:103790002C302C302C302C302C302C302C302C3049
:1037A0002C302C302C302C302C302C302C302C3039
:1037B0002C302C302C302C302C302C302C302C3029
:1037C0002C302C302C302C302C302C302C302C3019
:1037D0002C302C302C302C302C302C302C302C3009
:1037E0002C302C302C302C302C302C302C302C30F9
:1037F0002C302C302C302C302C302C302C302C30E9
:103800002C302C302C302C302C302C302C302C30D8
:103810002C302C302C302C302C302C302C302C30C8
:103820002C302C302C302C302C302C302C302C30B8
:103830002C302C302C302C302C302C302C302C30A8
:103840002C302C302C302C302C302C302C302C3098
:103850002C35332C39385D7D00000000B03900086C
:103860000000002040000000C4010008F0390008FA
:103870004000002070640000E0010008000000002B
:103880000000F07F1001000043000000F8FFFFFF80
:103890000040404040404040404041414141414063
:1038A0004040404040404040404040404040404018
:1038B00040050202020202020202020202020202A7
:1038C00002202020202020202020200202020202AC
:1038D0000202909090909090101010101010101004
:1038E0001010101010101010101010100202020210
:1038F0000202888888888888080808080808080854
:10390000080808080808080808080808020202024F
:103910004000000000000000000000000000000067
:103920000000000000000000000000000000000097
:103930000000000000000000000000000000000087
:103940000000000000000000000000000000000077
:103950000000000000000000000000000000000067
:103960000000000000000000000000000000000057
:103970000000000000000000000000000000000047
:103980000000000000000000000000000000000037
:10399000000000001C00000043000000F8FFFFFFD3
:1039A0000C0000000E0000000F0000002E000000C0
:1039B000303300080000000000000000000000009C
:1039C00000000000000000000000000000000000F7
:1039D0000000000095020008F302000841030008FF
:1039E00000000000010203040102030406070809A5
:040000050800025598
:00000001FF
